S024000047696D62616C5F436F6E74726F6C6C65725F54657374795F546573742E73726563BA
S113000010210020010A0000FD090000FD09000084
S113001000000000000000000000000000000000DC
S1130020000000000000000000000000FD090000C6
S11300300000000000000000FD090000FD090000B0
S1130040FD090000FD090000FD090000FD09000094
S1130050FD090000FD090000FD090000D1010000B8
S1130060E1010000F10100000102000011020000A2
S113007021020000C5060000D5060000E5060000C8
S1130080F50600000507000015070000250700001D
S113009035070000FD090000FD090000FD0900000E
S11300A0FD09000010B5064C2378002B07D1054B41
S11300B0002B02D0044800E000BF0123237010BDD0
S11300C00400002000000000300D000008B5084BBB
S11300D0002B03D00748084900E000BF0748036825
S11300E0002B03D0064B002B00D0984708BDC04618
S11300F000000000300D000008000020300D00005A
S1130100000000000C4B1B68002B10D1EFF3108390
S1130110002B09D172B6BFF35F8F0022074B1A7010
S11301200122074B1A7002E00022054B1A70024BA1
S11301301A6801321A607047200000200000002075
S113014024000020084B1A68013A1A601B68002B2F
S113015009D1064B1B78002B05D00122044B1A70E1
S1130160BFF35F8F62B67047200000202400002098
S113017000000020F0B583B001AC012565700027B4
S1130180A77025700E20211C064EB0478022D20194
S1130190054B9A61277065700F20211CB04703B08E
S11301A0F0BDC046AD0100000044004100B583B07D
S11301B001AB80221A700A785A704A789A708A7849
S11301C0DA70191C014B984703B000BDE10500002B
S11301D008B5024B1B680020984708BD2800002082
S11301E008B5024B5B680120984708BD2800002031
S11301F008B5024B9B680220984708BD28000020E0
S113020008B5024BDB680320984708BD280000208E
S113021008B5024B1B690420984708BD280000203C
S113022008B5024B5B690520984708BD28000020EB
S113023070B50C4B1C6A0178857840780122104017
S113024080014026B44304432A40D00180229443D1
S1130250221C0243032001400902034802400A43CE
S11302601A6270BD00080040FFFCFFFF07283BD85E
S113027080001E4B1B589F46002036E01C4B196A19
S113028002220A431A6200202FE0194B99690222C4
S11302900A439A61002028E0154B198A02220A4376
S11302A01A82002021E0124B998A02220A439A8280
S11302B000201AE00F4B196802220A431A601A68D8
S11302C00D4B1A400A4B9A84191C1022CB681A420F
S11302D0FCD0084A9168064BD96251689962126849
S11302E092B29A84002000E017207047B00C0000FE
S11302F000080040400000207FFF000030B585B0BA
S1130300C222D200194B9A60194B5A681E218A43A3
S11303105A6001236A4613700024164DE0B2694600
S1130320A84701341C2CF9D103A8002444700125EA
S113033085700470104B98470620104B9847104B5B
S11303409847104B1C725C729C7201956B465C70F2
S113035006236A46137014725472002069460A4BCD
S113036098470020094B984705B030BD000800406D
S11303700040004139050000310200006D02000018
S11303809103000000040040B5030000690400006C
S1130390064B996908220A439A610122044B1A7098
S11303A0191C0B781342FCD17047C046000400406E
S11303B0000C0040F8B5061C071C0D782D020543FF
S11303C04B78002B02D08023DB021D434B7A002B99
S11303D002D080231B031D434C68012C17D9631ED4
S11303E01C420FD1022C06D90223002201325B00E9
S11303F09C42FBD800E000221702374380235B03B2
S11304001D4304E02702374380239B021D430B7ADC
S1130410002B02D080239B031D430F4A53785BB209
S1130420002BFBDB0D4B98470D4B1E700A4A53788B
S11304305BB2002BFBDB084B9F601A1C53785BB24A
S1130440002BFBDB044B5968802252020A401543FF
S11304505D60044B9847F8BD000C004005010000A6
S1130460080C00404501000010B5041C0B4A5378E9
S11304705BB2002BFBDB0A4B98470A4B1C70074A04
S113048053785BB2002BFBDB044B59688022520289
S11304900A435A60044B984710BDC046000C004004
S11304A005010000040C00404501000010B5041CC7
S11304B0064B9847064B1C70064B59888022D20184
S11304C00A435A80044B984710BDC04605010000FA
S11304D0020C0040000C00404501000010B5041C53
S11304E00F4B98470F4B1C700F4B58880005000F9B
S11304F059880E4A0A405A8059880D4A0A405A803F
S1130500191C8022D2014B881342FCD1064B0102F4
S11305105888064A02400A435A80064B984710BD41
S113052005010000020C0040000C0040FFF0FFFF3A
S1130530FFBFFFFF4501000010B50C7824020443FF
S1130540024B9847A4B2024B5C8010BDDD0400004E
S1130550000C004030B5D378002B1ED11378802BCB
S113056004D01B0680246402234300E00023547853
S11305700225AC430AD19478002C03D18024A40230
S1130580234302E0C024E402234341605478013C45
S1130590012C04D8114C234001E0416000230D04D8
S11305A02D0CA024E4052C431C4384620D0CD024A0
S11305B024062C431C438462D478002C0CD15C03A5
S11305C005D59378012B01D1816100E04161537815
S11305D0013B012B00D8816030BDC046FFFFFBFF0B
S11305E008B5031C0A1CC1090020002903D15809BD
S11305F0C001044940181F210B4001219940024BBE
S1130600984708BD00440041550500007047C046A6
S113061008B5044B9847044B9847044B9847044B40
S1130620984708BDFD020000750100000D0600009A
S11306300D060000931C9B001950022A04D1027E6F
S11306401023134303760CE0032A04D1027E2023F3
S11306501343037605E0012393401A1C037E1A43D7
S1130660027600207047C04638B58000144BC45849
S11306702268957B237E1D40637E1D40EB0705D5D4
S1130680201CA2689047012322689373AB0705D509
S1130690201CE2689047022322689373EB0605D579
S11306A0201C22699047102322689373AB0605D55A
S11306B0201C62699047236820229A7338BDC04683
S11306C05400002008B50020014B984708BDC046DF
S11306D06906000008B50120014B984708BDC046D3
S11306E06906000008B50220014B984708BDC046C2
S11306F06906000008B50320014B984708BDC046B1
S11307006906000008B50420014B984708BDC0469F
S11307106906000008B50520014B984708BDC0468E
S11307206906000008B50620014B984708BDC0467D
S11307306906000008B50720014B984708BDC0466C
S11307406906000070B588B00D4A6B4670CA70C364
S113075032CA32C342CA42C3009B834206D0012339
S11307609A006C461259824203D100E00023D8B2A9
S113077003E00133082BF3D1002008B070BDC0465C
S1130780D00C0000F0B54F464646C0B489B0041CF6
S11307900D1C9046081C914B98478146904F391C7C
S11307A0203106A808228F4EB047391C283102A8F0
S11307B01022B0470023A360E360236163612376C2
S11307C0637648468200884BD450256041468B7836
S11307D0082B04D117204A46D20700D5F8E023712C
S11307E02B880520D90700D5F2E0EB7B1C20DA0624
S11307F000D5EDE02B88990700D5E9E04246137C4B
S1130800002B0CD001A901238B700022CA70404632
S1130810806908704B704246107D744B984740467F
S1130820037F002B0BD001A901238B700022CA7017
S1130830426A0A704B70036AD8B26C4B98476C4B8F
S1130840196A4846420002A8125A0A431A624146EB
S11308508B78082B08D1664B1A6A48460130400051
S113086002A9415A0A431A62424613786846037041
S113087006AB49465E5C301C69465E4B9847301CAB
S11308805D4B984742469088138903439079927848
S11308901043184341464B78002B02D080231B01A0
S11308A0184321687F22CB7B9343FCD128804246A6
S11308B0507B431E98418000937B002B01D0012381
S11308C0184321687F22CB7B9343FCD1FF232B71F8
S11308D0002805D021687F22CB7B9343FCD168712B
S11308E04346987ADB7A002B01D010231843414603
S11308F00B7B002B01D02023184321687F22CB7B64
S11309009343FCD1A87122687F21D37B8B43FCD114
S11309102379042B05D0082B41D01720002B57D165
S113092024E07F21D37B8B43FCD128234246D35C34
S11309302B7421687F22CB7B9343FCD1292340462F
S1130940C35C2B7521687F22CB7B9343FCD12A2384
S11309504146CB5C2B7621687F22CB7B9343FCD131
S11309602B234246D35C6B76002031E07F21D37B7E
S11309708B43FCD14046038D2B8221687F22CB7BA5
S11309809343FCD141464B8D2B8321687F22CB7B43
S11309909343FCD14246938D6B83002018E07F2162
S11309A0D37B8B43FCD143469B6A2B6121687F2216
S11309B0CB7B9343FCD14046C06AA86121687F2267
S11309C0CB7B9343FCD141460B6BEB610020FFE7EB
S11309D009B00CBC90469946F0BDC04645070000DE
S11309E0D00C00009D0C000054000020E105000024
S11309F00004004039050000AD040000FEE7C046D5
S1130A0010B5194B194A9A4203D0194B164A9A4207
S1130A1004D3184B184A9A4210D31BE0174B1448BE
S1130A200330C01A80080130800000230E490F4AA9
S1130A30D458CC5004338342FAD1EAE70E4B1A1D42
S1130A400C490331891A890889005218002102C30C
S1130A509342FCD10A4B7F210A4A8A439A600A4B8B
S1130A6098470A4B9847FEE700000020300D00002D
S1130A7004000020100100200400002004000020D5
S1130A8000ED00E000000000510C00001D0C00000F
S1130A908022D205014BDA617047C0468044004190
S1130AA04022014BDA6170478044004130B583B085
S1130AB001AC0023A370022363700123237026205A
S1130AC0211C084DA8472720211CA8471420211CBD
S1130AD0A8471520211CA8473E20211CA84703B085
S1130AE030BDC046AD010000F0B58FB001AC0023AD
S1130AF00022A371238100216170A272E272227329
S1130B00A273627322746361A361227723626362B6
S1130B1023856385A3850423A37001232370802385
S1130B20DB00A38029270523E355104D281C104919
S1130B30221C104EB0470A23E3550F480F49221CCC
S1130B40B0472A687F21D37B8B43FCD111880223D1
S1130B500B431380084B1A687F21D37B8B43FCD152
S1130B60118802230B4313800FB0F0BDF000002066
S1130B70002C004285070000C80000200034004219
S1130B80F8B55F4656464D464446F0B41B4D281C06
S1130B901B4900221B4EB0471B4C201C1B49002242
S1130BA0B04728681A4A934690471A4B9A461B5CEA
S1130BB01F22914613400126321C9A40131C164AE8
S1130BC09046136001276B7E3B436B762B685E7304
S1130BD02068D8475246135C4A461340321C9A4058
S1130BE0131C42461360637E1F43677623685E735B
S1130BF03CBC90469946A246AB46F8BDF0000020A6
S1130C00910A000035060000C8000020A10A000077
S1130C1045070000080D000000E100E008B5074B9F
S1130C209847074B9847074B9847074B984701222B
S1130C30064B1A70BFF35F8F62B6FEE71106000021
S1130C40E90A0000810B0000AD0A0000000000204A
S1130C5070B50E4B0E4D0024ED1AAD101E1CAC42A7
S1130C6004D0A300F35898470134F8E700F050F893
S1130C70084B094D0024ED1AAD101E1CAC4204D0E3
S1130C80A300F35898470134F8E770BD1C0D000029
S1130C901C0D00001C0D0000200D000010B50023E9
S1130CA0934203D0CC5CC4540133F9E710BD000077
S1130CB098020000E8020000E80200007802000048
S1130CC08A020000A60200007C020000B4020000B8
S1130CD0002000420024004200280042002C004270
S1130CE0003000420034004200380042003C004220
S1130CF0131314141515161600010002000400083D
S1130D0000100020004000800D0E0F10111213146B
S1130D10F8B5C046F8BC08BC9E467047CD0000003C
S1130D20F8B5C046F8BC08BC9E467047A500000054
S1070D3001000000BA
S9030A01F1
