:1000000040100020B5040000B1040000B10400005D
:1000100000000000000000000000000000000000E0
:10002000000000000000000000000000B10400001B
:100030000000000000000000B1040000B104000056
:10004000B1040000B1040000B1040000B1040000DC
:10005000B1040000B1040000B1040000B1040000CC
:10006000B1040000B1040000B1040000B1040000BC
:10007000B1040000B1040000B1040000B1040000AC
:10008000B1040000B1040000B1040000B10400009C
:10009000B1040000B1040000B1040000B10400008C
:1000A000B1040000B1040000B1040000B10400007C
:1000B00010B5064C2378002B07D1054B002B02D03E
:1000C000044800E000BF0123237010BD040000209D
:1000D000000000003406000008B5084B002B03D0D8
:1000E0000748084900E000BF07480368002B03D019
:1000F000064B002B00D0984708BDC046000000000A
:100100003406000008000020340600000000000053
:100110007047C0460C4B1B68002B10D1EFF31083C7
:10012000002B09D172B6BFF35F8F0022074B1A7004
:100130000122074B1A7002E00022054B1A70024B95
:100140001A6801321A607047200000200000002069
:1001500024000020084B1A68013A1A601B68002B23
:1001600009D1064B1B78002B05D00122044B1A70D5
:10017000BFF35F8F62B6704720000020240000208C
:100180000000002070B50C4B1C6A0178857840781F
:100190000122104080014026B44304432A40D0018C
:1001A00080229443221C0243032001400902034899
:1001B00002400A431A6270BD00080040FFFCFFFFC6
:1001C000082843D88000224B1B589F4600203EE061
:1001D000204B196A02220A431A62002037E01D4BA5
:1001E000996902220A439A61002030E0194B198A6A
:1001F00002220A431A82002029E0164B998A022221
:100200000A439A82002022E0134B196802220A4313
:100210001A601A68114B1A400E4B9A84191C10224E
:10022000CB681A42FCD00C4A91680A4BD9625168DB
:100230009962126892B29A84002008E0054A442329
:10024000D05C02210143D154002000E01720704708
:10025000F005000000080040280000207FFF00009B
:1002600030B585B0C222D200194B9A60194B5A683A
:100270001E218A435A6001236A4613700024164DDA
:10028000E0B26946A8470134252CF9D103A800241F
:100290004470012585700470104B98470620104B60
:1002A0009847104B9847104B1C725C729C720195DA
:1002B0006B465C7006236A461370147254720020F9
:1002C00069460A4B98470020094B984705B030BD56
:1002D00000080040004000416D040000850100005E
:1002E000C1010000F50200000004004019030000F5
:1002F000CD030000064B996908220A439A61012246
:10030000044B1A70191C0B781342FCD17047C0467D
:1003100000040040000C0040F8B5061C071C0D78D6
:100320002D0205434B78002B02D08023DB021D43B6
:100330004B7A002B02D080231B031D434C68012CF9
:1003400017D9631E1C420FD1022C06D902230022AA
:1003500001325B009C42FBD800E0002217023743C9
:1003600080235B031D4304E02702374380239B0265
:100370001D430B7A002B02D080239B031D430F4AA1
:1003800053785BB2002BFBDB0D4B98470D4B1E7077
:100390000A4A53785BB2002BFBDB084B9F601A1CA8
:1003A00053785BB2002BFBDB044B5968802252026E
:1003B0000A4015435D60044B9847F8BD000C0040AF
:1003C00015010000080C00405501000010B5041C88
:1003D0000B4A53785BB2002BFBDB0A4B98470A4B66
:1003E0001C70074A53785BB2002BFBDB044B596847
:1003F000802252020A435A60044B984710BDC046FF
:10040000000C004015010000040C004055010000E4
:1004100010B5041C0F4B98470F4B1C700F4B58889E
:100420000005000F59880E4A0A405A8059880D4A23
:100430000A405A80191C8022D2014B881342FCD1F9
:10044000064B01025888064A02400A435A80064B6E
:10045000984710BD15010000020C0040000C004040
:10046000FFF0FFFFFFBFFFFF5501000010B50C7844
:1004700024020443024B9847A4B2024B5C8010BD97
:1004800011040000000C00407047C04608B5044B42
:100490009847044B9847044B9847044B984708BD2E
:1004A00061020000110100008904000089040000BD
:1004B000FEE7C04670B5022190235B00284AD15068
:1004C000284BD8780321884302221043D870DD7866
:1004D0000C24A54308200543DD70234B9E7B30256B
:1004E000AE43202535439D739D7BA54328439873D8
:1004F000987B884302439A731C4B1D4A9A4203D04F
:100500001C4B1A4A9A4204D31B4B1C4A9A4210D3E2
:100510001BE01B4B17480330C01A800801308000D5
:1005200000231249124AD458CC5004338342FAD1E2
:10053000EAE7124B1A1D10490331891A890889000C
:100540005218002102C39342FCD10E4B7F210E4A68
:100550008A439A600D4B98470D4B9847FEE7C0467B
:1005600000700041005000410048004100000020A0
:100570003406000004000020400000200400002099
:100580000400002000ED00E000000000A5050000D0
:100590009505000008B5024B9847002008BDC046ED
:1005A0008D04000070B50E4B0E4D0024ED1AAD10F9
:1005B0001E1CAC4204D0A300F35898470134F8E75E
:1005C00000F028F8084B094D0024ED1AAD101E1C50
:1005D000AC4204D0A300F35898470134F8E770BD4B
:1005E000200600002006000020060000240600006F
:1005F000EC0100004C0200004C020000CC010000A5
:10060000DE010000FA010000D00100000802000035
:100610003C020000F8B5C046F8BC08BC9E467047D6
:10062000D9000000F8B5C046F8BC08BC9E4670472B
:04063000B100000015
:0406340001000000C1
:04000003000004B540
:00000001FF
