S01C000067696D62616C5F636F6E74726F6C6C65725F76322E73726563F2
S1130000B82100202D150000291500002915000035
S113001000000000000000000000000000000000DC
S1130020000000000000000000000000291500008E
S11300300000000000000000291500002915000040
S113004029150000291500002915000029150000B4
S1130050291500002915000029150000F1050000EC
S11300600106000011060000210600003106000010
S113007041060000890D0000990D0000A90D000043
S1130080B90D0000C90D0000D90D0000E90D0000F4
S1130090F90D00002915000029150000291500009C
S11300A02915000010B5064C2378002B07D1054B09
S11300B0002B02D0044800E000BF0123237010BDD0
S11300C074000020000000003029000008B5084B2F
S11300D0002B03D00748084900E000BF0748036825
S11300E0002B03D0064B002B00D0984708BDC04618
S11300F000000000302900007800002030290000B2
S11301000000000010B50020084B9847084CFA2165
S11301108900A047074B1860FA218900A047064BC5
S113012018600522054B1A6010BDC046E11200009C
S1130130691B0000040000200000002010E000E023
S113014030B5084B1C68084A00258021490206E0A6
S1130150002C04D05460956013680B42FCD0013825
S1130160F6D230BD0000002010E000E030B5084BAE
S11301701C68084A00258021490206E0002C04D0AE
S11301805460956013680B42FCD00138F6D230BD40
S11301900400002010E000E010B5031C49084020D2
S11301A099420CD30024C91A601C80B28B4201D836
S11301B0041CF8E74020FF2C01D81480002010BD57
S11301C0F0B55F4656464D464446F0B487B0061C2B
S11301D00D1C049210AA1078321C424340248A4217
S11301E000D9B3E0002B4BD10021321C5E4CA04758
S11301F083462E1C002700200021002200233F24D8
S1130200A4460125A846029003916146203903D4EF
S113021040468840814605E0202165464C1B404607
S1130220E040814641466446A1408A46101C191CA0
S113023080185941021C0B1C5D464C46254202D0D5
S1130240424602430B1C9F420CD801D1964209D866
S1130250921BBB415046029D28434946039C2143BF
S1130260029003916546013DAC46CED202980399B3
S11302703C4B3B4A121A8B41120C1B041A4362E09A
S11302800022012B5FD14F0FB946CD00AB460021B0
S1130290321C0023344CA047061C0F1C00230125EC
S11302A0029603979A465046C0B2059000218846AC
S11302B0002200233F24271C203F03D42E1CBE40D1
S11302C0019604E02020071B291CF94001912E1CF3
S11302D0A6400096101C191C80185941021C0B1CC6
S11302E05F463740BC46019E4F463E4067463E430C
S11302F002D02A1C02430B1C039898420BD802D14B
S11303000299914207D8029E039F921BBB41474624
S113031000980743B846013CCDD2414652468B1A59
S1130320DB08124CA34208D9059A0132D2B20592D5
S11303300126B2445746082FB5D140240598082811
S113034004D042031A43049C22800024201C07B0DA
S11303503CBC90469946A246AB46F0BDC046C0465A
S11303600000000001000000091C0000FF1F000045
S113037010B582B0041C0F4B1B78002B01D0002950
S11303800DD001A90C700C200B4B98470C200B4B83
S11303909847084B5C7001221A70002007E0054B57
S11303A05A781D20141B621E94416442204002B0FE
S11303B010BDC04690000020F91300006D1300002A
S11303C0444B984233D006D8434B98420DD0434B0C
S11303D098421BD06FE0424B98424AD0414B98421E
S11303E058D0414B984266D132E0012965D00029AA
S11303F004D0022906D0032906D001E03B4867E077
S1130400002065E03A4863E03A4861E0012956D0AB
S1130410002904D0022906D0032906D001E00320D4
S113042056E0002054E0344852E0344850E00129BA
S113043047D0002904D0022906D0032906D001E0C0
S11304402F4845E0002043E02E4841E02E483FE09D
S1130450012938D0002904D0022906D0032906D066
S113046001E02A4834E0002032E0294830E02948FD
S11304702EE0012929D0002904D0022906D003291D
S113048006D001E0244823E0002021E023481FE0B7
S113049023481DE001291AD0002904D0022906D0DE
S11304A0032906D001E01F4812E0002010E01E4896
S11304B00EE01E480CE000200AE01D4808E01D483C
S11304C006E01D4804E01D4802E01D4800E01D4808
S11304D07047C0460010004200080042000C004271
S11304E000180042001C00420014004203000400F3
S11304F0030006000300070003001E0003001F00A2
S11305000300080003000A0003000B0003001000AE
S1130510030012000300130003000C0003000E008C
S113052003000F0003001600030018000300190065
S1130530030005000300010003000900030011008B
S113054003000D000300170070B586B00C4A6B461B
S113055070CA70C332CA32C3009E864206D00123D9
S11305609A0069465258824203D100E00023D8B26F
S113057003E00133062BF3D1002006B070BDC04662
S1130580C42600007047C046F0B50A4B1B78002B08
S11305900CD1094F094E0A4D0024DE515A1914603A
S11305A00433182BF9D10122024B1A708000024B3C
S11305B0C150F0BD94000020980000208505000083
S11305C0DC00002010B582B0041C684605490622F0
S11305D0054B9847201C054B98476B46185602B0AC
S11305E010BDC046DC260000A51C00004905000023
S11305F008B5024B1B680020984708BD98000020EE
S113060008B5024B5B680120984708BD980000209C
S113061008B5024B9B680220984708BD980000204B
S113062008B5024BDB680320984708BD98000020FA
S113063008B5024B1B690420984708BD98000020A8
S113064008B5024B5B690520984708BD9800002057
S1130650F0B55F4656464D464446F0B48DB0051C91
S11306600C1C161C2960081C7D4B98472168052327
S1130670CA0700D5ECE022681C23970700D5E7E001
S1130680784B196A821C012797403A1C0A431A6264
S11306900BA9737F0B700D30C7B2381C724B98478F
S11306A0381C724B9847707F0021714B9847F37A3E
S11306B06B71337DAB71737DEB712F680397381CBD
S11306C0674B98470D3000226B46DA8231688946C1
S11306D0F2689246B37D98467368002B13D080224B
S11306E0520593422BD1F37D002B01D02A682BE0D5
S11306F03769C0B25F4B9847011C381C6A461632F2
S11307005D4B98471CE0F37D002B09D01023009328
S11307103069B1696A4616320023584FB8470FE072
S113072031698B46C0B2534B9847011C1023009388
S113073058466A4616320023504FB84700E000205E
S1130740031E00D084E0D1E7138ADB0BDB039BB2EA
S1130750002BF9D16B4616331B88039F7B815246CD
S113076049460A4373681A4347467B071A43F37D95
S1130770002B01D104231A43307D4004737D1B04F4
S11307801843F17AB37A0B4318433389FF2B03D010
S1130790802149040A431843337F002B03D1384B8B
S11307A09B78990701D580231A4329680B8ADB0BB0
S11307B0DB039BB2002BF9D1039F786029680B8A75
S11307C0DB0BDB039BB2002BF9D1039F3A600AAB2E
S11307D080221A7000225A70DA709A70316A069177
S11307E0726A0792B36A0893F66A099600270AAEFA
S11307F0F9B2BB0006AA9858002802D1201C214A4D
S11308009047431C05D03070000CC0B2311C1E4A06
S113081090470137042FEBD10023AB60EB602B61D1
S1130820AB616B610022EB83AB832023EA54212369
S1130830EA542223EA542323EA542868084B9847AD
S1130840041C1249124B9847A400124BE550002394
S1130850181C0DB03CBC90469946A246AB46F0BD70
S11308604905000000040040F91300006D13000066
S1130870710300001514000099010000C10100007B
S113088000200041C1030000D5140000110900003C
S113089089050000DC000020931C9B0019500123F3
S11308A093401A1C2023C15C0A43C2547047C046BB
S11308B010B51723002A11D0C48BA4B20523002C31
S11308C00CD1C4791C23002C08D00368C283816135
S11308D005212322815401225A730023181C10BDC0
S11308E010B51723002A11D084791C23002C0DD0B5
S11308F0848BA4B20523002C08D103688283416150
S113090005212222815404225A730023181C10BD8D
S1130910F8B58000494BC5582C68238ADB0BDB03F0
S11309209BB2002BF9D1A37B667B1E402123EB5C99
S11309302022AA5C171C1F40F10720D5EB8B9BB229
S1130940002B1AD0AB691A78D2B2591CA961697903
S1130950012904D1597809020A430233AB61D30552
S1130960DB0D2383EB8B013B9BB2EB83002B06D186
S1130970012323730223637301E001232373B2076A
S113098009D50223237300222323EA54FB0702D54B
S1130990281CA968884772074ED5AB8B9BB2002BE5
S11309A048D0238ADBB2590722D09A0707D51A22E6
S11309B02223EA54228A02231343238212E0590792
S11309C007D51E222223EA54228A042313432382B6
S11309D008E0DA0706D513222223EA54228A0123E7
S11309E0134323827B0727D52B69281C984723E0D0
S11309F0228BD205D20DD3B269690B706B69591C75
S1130A0069616979012904D1120A5A706B69013349
S1130A106B61AB8B013B9BB2AB83002B0CD10423EA
S1130A20237300222223EA54BA0705D5EB68281C55
S1130A30984701E004232373F8BDC046DC0000207E
S1130A4070B588B00D4A6B4670CA70C332CA32C3DF
S1130A5042CA42C3009B834206D001239A006C46DB
S1130A601259824203D100E00023D8B203E00133DB
S1130A70082BF3D1002008B070BDC046E426000066
S1130A80F0B54F464646C0B489B0041C0D1C9046D0
S1130A90081C914B98478146904F391C203106A879
S1130AA008228F4EB047391C283102A81022B047C3
S1130AB00023A360E3602361636123766376484681
S1130AC08200884BD450256041468B78082B04D192
S1130AD017204A46D20700D5F8E023712B88052059
S1130AE0D90700D5F2E0EB7B1C20DA0600D5EDE057
S1130AF02B88990700D5E9E04246137C002B0CD0E3
S1130B0001A901238B700022CA70404680690870D5
S1130B104B704246107D744B98474046037F002B30
S1130B200BD001A901238B700022CA70426A0A709B
S1130B304B70036AD8B26C4B98476C4B196A4846A1
S1130B40420002A8125A0A431A6241468B78082BC3
S1130B5008D1664B1A6A48460130400002A9415A3E
S1130B600A431A62424613786846037006AB494644
S1130B705E5C301C69465E4B9847301C5D4B984761
S1130B80424690881389034390799278104318431E
S1130B9041464B78002B02D080231B011843216867
S1130BA07F22CB7B9343FCD128804246507B431E5B
S1130BB098418000937B002B01D0012318432168C6
S1130BC07F22CB7B9343FCD1FF232B71002805D0DC
S1130BD021687F22CB7B9343FCD168714346987A8A
S1130BE0DB7A002B01D01023184341460B7B002BEA
S1130BF001D02023184321687F22CB7B9343FCD16F
S1130C00A87122687F21D37B8B43FCD12379042BE9
S1130C1005D0082B41D01720002B57D124E07F2189
S1130C20D37B8B43FCD128234246D35C2B742168AD
S1130C307F22CB7B9343FCD129234046C35C2B7595
S1130C4021687F22CB7B9343FCD12A234146CB5C92
S1130C502B7621687F22CB7B9343FCD12B23424606
S1130C60D35C6B76002031E07F21D37B8B43FCD1B6
S1130C704046038D2B8221687F22CB7B9343FCD19A
S1130C8041464B8D2B8321687F22CB7B9343FCD140
S1130C904246938D6B83002018E07F21D37B8B43E6
S1130CA0FCD143469B6A2B6121687F22CB7B934313
S1130CB0FCD14046C06AA86121687F22CB7B934364
S1130CC0FCD141460B6BEB610020FFE709B00CBC83
S1130CD090469946F0BDC046410A0000E426000053
S1130CE0A51C0000F4000020D514000000040040FE
S1130CF0F91300006D130000931C9B001950022A85
S1130D0004D1027E1023134303760CE0032A04D19A
S1130D10027E20231343037605E0012393401A1C2B
S1130D20037E1A43027600207047C04638B580001F
S1130D30144BC4582268957B237E1D40637E1D405E
S1130D40EB0705D5201CA268904701232268937302
S1130D50AB0705D5201CE2689047022322689373F1
S1130D60EB0605D5201C2269904710232268937353
S1130D70AB0605D5201C62699047236820229A732C
S1130D8038BDC046F400002008B50020014B984748
S1130D9008BDC0462D0D000008B50120014B984741
S1130DA008BDC0462D0D000008B50220014B984730
S1130DB008BDC0462D0D000008B50320014B98471F
S1130DC008BDC0462D0D000008B50420014B98470E
S1130DD008BDC0462D0D000008B50520014B9847FD
S1130DE008BDC0462D0D000008B50620014B9847EC
S1130DF008BDC0462D0D000008B50720014B9847DB
S1130E0008BDC0462D0D00000C4B1B68002B10D1F3
S1130E10EFF31083002B09D172B6BFF35F8F00226A
S1130E20074B1A700122074B1A7002E00022054B8F
S1130E301A70024B1A6801321A607047B000002021
S1130E4008000020B4000020084B1A68013A1A6018
S1130E501B68002B09D1064B1B78002B05D00122FF
S1130E60044B1A70BFF35F8F62B67047B000002066
S1130E70B400002008000020F0B583B001AC0125C7
S1130E8065700027A77025700E20211C064EB04700
S1130E908022D201054B9A61277065700F20211CB6
S1130EA0B04703B0F0BDC046B10E0000004400419D
S1130EB000B583B001AB80221A700A785A704A7860
S1130EC09A708A78DA70191C014B984703B000BDF8
S1130ED0D514000008B507282BD88000174B1B58E1
S1130EE09F468020000227E0154BD86824E0154B6C
S1130EF0186A8005800F144BC340181C1CE0104B6B
S1130F00186919E00E4B1B680220184014D00D49D3
S1130F101022CB681A42FCD0094B1B685A070AD529
S1130F2000200A4B9847064B9B681B041B0C584334
S1130F3002E0002000E0064808BDC0461C2700006F
S1130F40B80000200008004000127A0015140000C8
S1130F50006CDC0270B50C4B1C6A01788578407813
S1130F600122104080014026B44304432A40D001AA
S1130F7080229443221C02430320014009020348B7
S1130F8002400A431A6270BD00080040FFFCFFFFE4
S1130F90F0B55F4656464D464446F0B4254A948A19
S1130FA045780378594259418A4683789C46C178EA
S1130FB0884603799946467B077B817B8B4680680C
S1130FC01D4B186101235146880004218C430443BE
S1130FD048461840C00008218C430443404618404A
S1130FE0000110218C430443604618404001202135
S1130FF08C430443181C384080014027BC430443FD
S1131000181C3040C0018026B44304430720284004
S113101000020A4D2C40044359460B40190308486A
S1131020231C03400B4393823CBC90469946A24642
S1131030AB46F0BD00080040B8000020FFF8FFFFF9
S1131040FFEFFFFF07283BD880001E4B1B589F462D
S1131050002036E01C4B196A02220A431A6200205F
S11310602FE0194B996902220A439A61002028E073
S1131070154B198A02220A431A82002021E0124BDE
S1131080998A02220A439A8200201AE00F4B1968B7
S113109002220A431A601A680D4B1A400A4B9A84BA
S11310A0191C1022CB681A42FCD0084A9168064BDE
S11310B0D96251689962126892B29A84002000E061
S11310C0172070473C27000000080040B8000020AB
S11310D07FFF0000F0B589B0C222D2002F4B9A6086
S11310E02F4B5A681E218A435A6002236A461370A2
S11310F000242C4DE0B26946A84701341C2CF9D1D8
S113110004A8002303708370802212028260C370DB
S11311100122027103738373062242704373224BCC
S113112098470520214B98471C490222CB681A4254
S1131130FCD01A4B998A80220A439A8203A800247D
S11311404470012585700470194B98470620174B8D
S11311509847184B984701956B465C701C725C72FB
S113116005236A46137001206946134FB8470120CE
S1131170124EB047124B1C725C729C7201956B4606
S11311805C7006236A461370147254720020694618
S1131190B8470020B04709B0F0BDC0460008004081
S11311A000400041F9130000910F000045100000B9
S11311B0550F0000C5110000E91100009D12000048
S11311C000040040064B996908220A439A610122EF
S11311D0044B1A70191C0B781342FCD17047C0469B
S11311E000040040000C0040F8B5061C071C0D78F4
S11311F02D0205434B78002B02D08023DB021D43D4
S11312004B7A002B02D080231B031D434C68012C16
S113121017D9631E1C420FD1022C06D902230022C7
S113122001325B009C42FBD800E0002217023743E6
S113123080235B031D4304E02702374380239B0282
S11312401D430B7A002B02D080239B031D430F4ABE
S113125053785BB2002BFBDB0D4B98470D4B1E7094
S11312600A4A53785BB2002BFBDB084B9F601A1CC5
S113127053785BB2002BFBDB044B5968802252028B
S11312800A4015435D60044B9847F8BD000C0040CC
S1131290090E0000080C0040490E000010B5041CA3
S11312A00B4A53785BB2002BFBDB0A4B98470A4B83
S11312B01C70074A53785BB2002BFBDB044B596864
S11312C0802252020A435A60044B984710BDC0461C
S11312D0000C0040090E0000040C0040490E000000
S11312E070B5041C1A4A53785BB2002BFBDB194B14
S11312F09847194B1C70164A53785BB2002BFBDBE2
S1131300134E7068C004C00E144B9847051C124B52
S11313101C707668F602F60F114B1C700C4A537859
S11313205BB2002BFBDB0A4B9C68240AA4B20D4B76
S11313309847002E07D1012C07D9281C211C0A4BE1
S11313409847051C01E00134E540281C70BDC046E7
S1131350000C0040090E0000040C0040D50E0000F3
S1131360080C0040490E0000691B000010B5041C65
S1131370064B9847064B1C70064B59888022D201B5
S11313800A435A80044B984710BDC046090E00001A
S1131390020C0040000C0040490E000010B5041C73
S11313A00F4B98470F4B1C700F4B58880005000FCC
S11313B059880E4A0A405A8059880D4A0A405A8070
S11313C0191C8022D2014B881342FCD1064B010226
S11313D05888064A02400A435A80064B984710BD73
S11313E0090E0000020C0040000C0040FFF0FFFF5B
S11313F0FFBFFFFF490E000010B50C782402044320
S1131400024B9847A4B2024B5C8010BD9D130000B0
S1131410000C004010B5041C064B9847064B1C708A
S1131420064B5C882405240F054B9847201C054B6C
S1131430984710BD090E0000020C0040000C00404B
S1131440490E0000E112000030B5D378002B1ED104
S11314501378802B04D01B0680246402234300E00D
S1131460002354780225AC430AD19478002C03D18C
S11314708024A402234302E0C024E4022343416005
S11314805478013C012C04D8114C234001E0416004
S113149000230D042D0CA024E4052C431C4384627A
S11314A00D0CD02424062C431C438462D478002CD5
S11314B00CD15C0305D59378012B01D1816100E047
S11314C041615378013B012B00D8816030BDC04697
S11314D0FFFFFBFF08B5031C0A1CC10900200029FB
S11314E003D15809C001044940181F210B400121B0
S11314F09940024B984708BD00440041491400003C
S11315007047C04608B5044B9847044B9847044BB2
S11315109847044B984708BDD5100000790E000089
S11315200115000001150000FEE7C04610B5194B77
S1131530194A9A4203D0194B164A9A4204D3184BBB
S1131540184A9A4210D31BE0174B14480330C01AB0
S113155080080130800000230E490F4AD458CC5033
S113156004338342FAD1EAE70E4B1A1D0C490331C6
S1131570891A890889005218002102C39342FCD1B8
S11315800A4B7F210A4A8A439A600A4B98470A4BBE
S11315909847FEE700000020302900007400002076
S11315A0B4010020740000200400002000ED00E0DD
S11315B000000000591C0000751A0000064B1B684F
S11315C0002B02D1054A044B1A60034A1368181809
S11315D01060181C7047C046CC000020B8210020C1
S11315E08022D201014BDA617047C04600440041B9
S11315F008B5002307480849C25CCA540133102BBC
S1131600FAD10122054B1A70054802491022054BF4
S1131610984708BD5801002040010020D100002057
S11316201C010020B1080000F0B58FB001AC00230C
S11316300022A371238100216170A272E2722273DD
S1131640A273627322746361A3612277236263626B
S113165023856385A3850423A3700123237080233A
S1131660DB00A38029270223E355104D281C1049D1
S1131670221C104EB0470A23E3550F480F49221C81
S1131680B0472A687F21D37B8B43FCD11188022386
S11316900B431380084B1A687F21D37B8B43FCD107
S11316A0118802230B4313800FB0F0BD900100207A
S11316B0002C0042810A000068010020003400422E
S11316C0F8B55F4656464D464446F0B41B4D281CBB
S11316D01B4900221B4EB0471B4C201C1B490022F7
S11316E0B04728681A4A934690471A4B9A461B5C9F
S11316F01F22914613400126321C9A40131C164A9D
S11317009046136001276B7E3B436B762B685E73B8
S11317102068D8475246135C4A461340321C9A400C
S1131720131C42461360637E1F43677623685E730F
S11317303CBC90469946A246AB46F8BD90010020B9
S113174071180000F90C000068010020C5170000A2
S1131750410A00005C27000000E100E030B583B0DE
S113176001AC0023A370022363700123237026209D
S1131770211C084DA8472720211CA8471420211C00
S1131780A8471520211CA8473E20211CA84703B0C8
S113179030BDC046B10E000038B5002803D0074B59
S11317A080229A6102E0054B80225A61034C402555
S11317B0A5613220024B9847656138BD80440041E1
S11317C04101000008B5184B1A68184B1B689A426F
S11317D028D0174B1B68002B06DD0120154B9847BA
S11317E0114B1A6801321A60114B1B68002B06DA80
S11317F00020104B98470C4B1A68013A1A600A4BA8
S11318001B68002B04DAC822D2009B18064A136016
S1131810054B1B68C822D200934203DD064A9B187D
S1131820014A136008BDC046880100205001002011
S11318301401002099170000C0F9FFFF38B50028F3
S113184004D080229203084B9A6103E08022920321
S1131850054B5A61044C80256D03A5613220034B6E
S11318609847656138BDC04600440041410100000D
S113187008B50E4B5A680E4B5B689A4215D00D4B57
S11318805B68002B06DD01200B4B9847074B5A6819
S113189001325A60074B5B68002B06DA0020064BC6
S11318A09847024B5A68013A5A6008BD88010020E3
S11318B050010020140100203D18000010B50268FA
S11318C00C68131BC8229200934202DC0A4A13607C
S11318D002E0A03B084A1360074B1B68074A934287
S11318E004DAC822D2009B18034A136042684B688A
S11318F0D21A014B5A6010BD14010020E0FCFFFF16
S113190070B58CB08023DB05009300230193FF2284
S113191069460A818B72CB7201220A754A758B75EE
S1131920CB7506930B774B77E1231B020493C423F7
S11319309B03039301235B4208930993124B0A937D
S1131940124B0B93124E134D134C301C291C6A4638
S1131950A0470028F9D10E4D2C68201C0F4B984746
S11319601F23184001238340181C0D4B18602A685C
S1131970138ADB0BDB039BB2002BF9D12268022311
S1131980134323600CB070BD02001800020019005C
S11319901C0100200014004251060000C50500008F
S11319A000E100E038B5084C201C08490022084D2D
S11319B0A847201C07490122A8472123E15C0322F0
S11319C00A43E25438BDC0461C010020E115000062
S11319D099080000F1150000F0B5474680B4184B93
S11319E01B78012B29D10023154A1370154A137053
S11319F0154C1648211C1022154B9847601C154B9A
S1131A009846191C144FB847144E3060144DA8471B
S1131A10431E9841134B187000204146B84730606C
S1131A20A847114C206000204146B8473060A847C1
S1131A306060201C0D490E4B984704BC9046F0BDD5
S1131A40D1000020D0000020400100201C01002013
S1131A50B108000064270000FD1C0000AC01002058
S1131A604D1C00008401002050010020880100204A
S1131A70BD180000F0B5474680B484B0254B9847A4
S1131A80254B9847254B9847254B9847254B984716
S1131A90254B9847254B98470122254B1A70BFF3D5
S1131AA05F8F62B6234E244D244C301C291C102217
S1131AB0A047234B9847234B1A68234B1B689A4231
S1131AC015D1204B5B68204949688B420FD11F49CF
S1131AD0097800290BD101201C49087068461C496B
S1131AE01C4FB847134869460E221B4B98471B4BA3
S1131AF01B78002BD9D00022184B1A70184F802362
S1131B00DB059846BB610120164B984743467B6131
S1131B10CBE7C0460515000029160000C1160000D9
S1131B205D1700000501000001190000A51900005F
S1131B30080000201C01002058010020E1080000DA
S1131B40D91900008801002050010020D000002095
S1131B5068270000B91C0000B108000084010020BF
S1131B60804400416D010000002934D0012300228B
S1131B7010B488422CD301242407A14204D2814208
S1131B8002D209011B01F8E7E400A14204D2814218
S1131B9002D249005B00F8E7884201D3401A1A4395
S1131BA04C08A04202D3001B5C0822438C08A042CC
S1131BB002D3001B9C082243CC08A04202D3001B82
S1131BC0DC082243002803D01B0901D00909E3E7FC
S1131BD0101C10BC7047002801D00020C04307B47B
S1131BE0024802A14018029003BDC046190000003B
S1131BF00029F0D003B5FFF7B9FF0EBC4243891AA0
S1131C001847C0467047C0469C460304F0B51B0CF9
S1131C1017043F0C150C1E1C041C000C7E436B4364
S1131C2047434543FB18300C1818874202D98023D8
S1131C305B02ED18030CED1863465C434A4336041B
S1131C40360CA118000480194919F0BD08B500210B
S1131C500A2200F03DF908BD70B50E4B0E4D00246C
S1131C60ED1AAD101E1CAC4204D0A300F3589847E3
S1131C700134F8E700F04CFE084B094D0024ED1A3E
S1131C80AD101E1CAC4204D0A300F3589847013495
S1131C90F8E770BD1C2900001C2900001C29000065
S1131CA02029000010B50023934203D0CC5CC45417
S1131CB00133F9E710BD00000EB400B59CB01DABB4
S1131CC004CB822202A992008A810A4A02908A6085
S1131CD04A6101225242CA81074A086110681D9A6A
S1131CE0019300F063F9029A002313701CB008BC3E
S1131CF003B01847FFFFFF7F6C000020F8B5174BB7
S1131D00071C1D680E1CAC6D002C1FD1502000F068
S1131D10C7FBA8658460AB6D046044601C61DC6033
S1131D20AB6D9C615C61AB6DDC629C62AB6D5C63B2
S1131D301C63AB6DDC639C63AB6D5C641C64AB6D5A
S1131D40DC649C64AB6D1C77AB6D5C62AA6D381C63
S1131D50311C012300F004F8F8BDC0466C000020DB
S1131D60F0B5002802D11068002826D00578441C5C
S1131D700E1C3778002F09D00136BD42F9D1002B53
S1131D8001D0201CF2E71460037016E0002D09D185
S1131D901560281C11E02F78B74207D00135002FB9
S1131DA0F9D11C1C631C26780D1CF4E7002E02D00C
S1131DB00021217000E0331C1360F0BDF0B51D1C40
S1131DC0424B87B01B6805900293039101920B1C50
S1131DD01C78029F5E1C3A19517808220A4001D0EF
S1131DE0331CF5E72D2C04D101279E1C5C78009749
S1131DF004E000922B2C01D15C789E1C10232A1C39
S1131E009A4311D1302C08D1327820218A43582AA0
S1131E1007D174781D1C023606E0002D04D10A2572
S1131E2002E0002D00D10825009F291C7B427B4144
S1131E3080273F06FF1A381CFFF7DAFE381C04918E
S1131E40291CFFF791FE0023021C181C029F39195C
S1131E5049784F0701D5303C07E003270F4017D0DE
S1131E605721012F00D13721641AAC4210DA591CD2
S1131E700BD0904207D802D1049FBC4203DC6843D4
S1131E800123201801E001235B4234780136DDE7A9
S1131E90009F591C0BD180207B427B410006059F8B
S1131EA0C01A22233B60019F002F09D10BE0002FB1
S1131EB000D04042019F002F05D0039A002B00D090
S1131EC0721E019F3A6007B0F0BDC046700000204A
S1131ED038B5131C044A051C0C1C1068291C221C50
S1131EE0FFF76CFF38BDC0466C000020F0B58D686C
S1131EF085B0071C0C1C03920193AB4245D390227E
S1131F008B89D20013423DD0626903265643096986
S1131F102068F20F401A96190290021C01980132AF
S1131F2012187610964200D2161C381C5A050FD58A
S1131F30311C00F02BFB051E13D0029A2169FFF718
S1131F40B1FEA289184B134080221343A38111E0F0
S1131F50321C00F06FFB051E0CD1381C216900F007
S1131F60CDFA0C233B60A389402213430120A381B3
S1131F70404217E0029B2561ED1825606661019DD2
S1131F80F61AA6600198A84200D2019D2A1C206876
S1131F90039900F09AFAA2680020531BA3602368F7
S1131FA05D19256005B0F0BD7FFBFFFFF0B59FB064
S1131FB0039005938B890E1C171C19060FD53269E3
S1131FC0002A0CD1402100F0E1FA30603061002891
S1131FD003D103990C230B60C9E04023736106AD60
S1131FE000236B6120236B763023AB763C1C237873
S1131FF0002B03D1E21B029211D003E0252BF9D070
S11320000134F4E70398311C3A1C029BFFF76EFF7E
S1132010013000D1A6E06969029A8B186B612378BC
S1132020002B00D19EE0012252426A606A460023DE
S11320305B3201342B60EB60AB601370AB654E4FC9
S11320402178381C052200F035FA002807D0C71B78
S11320502B680120B840184328600134EFE72B684F
S1132060D90603D56A4620215B3211701A0703D5BD
S11320706A462B215B32117022782A2A01D0099BEF
S11320800EE0059A111D12680591002A01DB0992E0
S113209004E05242EA60022213432B60013409E057
S11320A02278303A092A04D80A214B4301349B1878
S11320B0F6E7099323782E2B18D163782A2B09D1BC
S11320C0059B02341A1D1B680592002B0DDA0123AF
S11320D05B420AE0013400232278303A092A04D80A
S11320E00A214B4301349B18F6E70793234F2178C9
S11320F0381C032200F0DEF9002806D0C71B2B6829
S11321004020B84018432860013421781C48062236
S1132110671C297600F0CEF9002812D0194B002B49
S113212006D1059B0722073393430833059314E034
S113213005AB00930398291C321C134B00E000BF2D
S113214007E005AB00930398291C321C0E4B00F0EA
S113215091F804900499013104D06A6904995318E0
S11321606B6143E7B3895A0601D40B9801E001205F
S113217040421FB0F0BDC0467A270000802700000F
S11321808427000000000000ED1E0000F7B5151CB8
S113219001930A698B68061C0C1C934200DA131C19
S11321A0221C2B6043321278002A01D001332B60A9
S11321B02068800602D52B6802332B60216806272D
S11321C00F401FD0231C43331B785A1E93412268AF
S11321D092061FD5E11840313020C870211C5A1CCA
S11321E045310978A21840320233D17012E0221C22
S11321F0301C019919320123089FB847013011D0CE
S1132200009F01370097E0682968009F431A9F42A6
S1132210EDDBD7E7221C301C01994332089FB847F5
S1132220013002D10120404223E0206806212B68BE
S1132230E26801400025042903D1D51AEB43DB17DA
S11322401D40A26823699A4201DDD31AED180027C4
S11322500097009FAF420BDA221C301C01991A32FE
S11322600123089FB8470130DCD0009F0137EFE716
S11322700020FEBDF0B50D1C8BB0433506920590D1
S1132280079304950B7E0C1C109A6E2B00D1A7E0CB
S113229011D8632B22D009D8002B00D1B0E0582BE1
S11322A000D0C0E045310B707B4D4EE0642B1CD058
S11322B0692B1AD0B7E0732B00D1A5E009D86F2B96
S11322C029D0702B00D0AEE00E68202333430B607E
S11322D036E0752B1FD0782B32D0A4E013680D1C88
S11322E0191D423511601B689FE0216813680E06B2
S11322F003D5191D11601E6805E04806F9D5191D9E
S1132300116000215E5E644B002E3BDA049D2D2299
S113231076422A7036E0216813680E0603D5191D2B
S113232011601E6804E04806F9D5191D1E88116065
S1132330594B227E039308276F2A1ED00A271CE0DC
S1132340231C78214533554D197011682368081DE5
S1132350039510601E0601D50E6802E05806FBD5F1
S11323600E88D90702D52022134323601027002E9C
S113237003D1226820239A432260231C0022433382
S11323801A7001E003930A276368A360002B03DB40
S11323902568042295432560002E02D1049D002B5C
S11323A00ED0049D301C391CFFF722FC0398013D1C
S11323B0435C301C2B70391CFFF7D6FB061EF1D191
S11323C0082F09D12168C90706D5626823699A4292
S11323D002DC013D30232B70049E731B23612AE031
S11323E0086813684969050604D5181D10601B6840
S11323F0196005E04606F8D5181D10601B681980A1
S113240000232361049D16E01368191D11601D68E3
S1132410281C00F047F963682061984200D92361C1
S11324202069606004E0251C42352B700123236180
S1132430049E00233370079E05980096211C09AA68
S1132440069BFFF7A3FE013002D10120404221E0A8
S11324502A1C059806992369079DA8470130F4D0E2
S11324602668B60705D4099BE068984212DA181C5E
S113247010E00025E0680999431A9D42F3DA221C12
S11324800598069919320123079EB0470130DCD024
S11324900135EFE70BB0F0BD8B2700009C2700004F
S11324A008B5034B011C186800F070F808BDC0465D
S11324B06C000020C9B28218904204D003788B4289
S11324C002D00130F8E70020704770B5814201D393
S11324D000230CE08C18A042FAD28518131C013B8F
S11324E00BD351426618F65C6918CE54F7E7934251
S11324F003D0CC5CC4540133F9E770BD30B5002976
S113250040D004390B68002B00DAC9181E4A13683E
S1132510141C002B02D14B60116033E099420FD29E
S113252008680A189A4205D113685268C0180860EE
S11325304A6000E04B60216024E08A4203D8131C07
S11325405A68002AF9D11D685C198C420BD10968BC
S1132550691858181960904214D1146852680919FE
S113256019605A600EE08C4202D90C23036009E022
S113257008680C18944203D1146852680019086062
S11325804A60596030BDC046D800002070B50323AE
S1132590CD1C9D430835061C0C2D01D20C2501E0F1
S11325A0002D3FDB8D423DD3204B1C681A1C211C9F
S11325B0002913D00868431B0DD40B2B02D90B60E0
S11325C0CC181EE08C4202D1636813601AE048689C
S11325D060600C1C16E00C1C4968E9E7144C206888
S11325E0002803D1301C00F04BF82060301C291C5B
S11325F000F046F8431C15D0C41C03239C438442BA
S11326000AD12560201C0B300722231D9043C31AD6
S11326100BD05A42E25008E0211A301C00F030F886
S11326200130EED10C233360002070BDD8000020AF
S1132630D4000020F8B5061C0C1C151C002904D17C
S1132640111CFFF7A3FF041C18E0002A03D1FFF7B5
S113265055FF2C1C12E000F02CF8A8420ED2301CBE
S1132660291CFFF793FF071E07D0211C2A1CFFF724
S113267019FB301C211CFFF741FF3C1C201CF8BD3A
S113268038B5074C0023051C081C2360FEF796FF91
S1132690431C03D12368002B00D02B6038BDC046F7
S11326A0B00100200023C25C0133002AFBD1581E74
S11326B0704704390B68181F002B02DAC8581B181E
S11326C0181F704700080042000C0042001000422E
S11326D00014004200180042001C00420708090AC6
S11326E00B0C00000020004200240042002800429D
S11326F0002C004200300042003400420038004206
S1132700003C0042131314141515161600010002A0
S1132710000400080010002000400080E80E0000C3
S1132720320F0000320F0000E20E0000E20E000043
S1132730FE0E0000EE0E0000040F000070100000FA
S1132740C0100000C0100000501000006210000013
S11327507E100000541000008C1000000D0E0F10AD
S1132760111213142C00000024252E35642C252E60
S113277035644343000000004300232D302B200028
S1132780686C4C0065666745464700303132333427
S113279035363738394142434445460030313233C7
S11327A03435363738396162636465660000202049
S11327B020202020202020282828282820202020ED
S11327C020202020202020202020202020208810AD
S11327D0101010101010101010101010101004040D
S11327E00404040404040404101010101010104114
S11327F04141414141010101010101010101010185
S11328000101010101010101011010101010104219
S11328104242424242020202020202020202020254
S11328200202020202020202021010101020000032
S11328300000000000000000000000000000000094
S11328400000000000000000000000000000000084
S11328500000000000000000000000000000000074
S11328600000000000000000000000000000000064
S11328700000000000000000000000000000000054
S11328800000000000000000000000000000000044
S11328900000000000000000000000000000000034
S11328A00000000000000000000000000000000024
S11328B00000000000000000000000000000000014
S11328C00000000000000000000000000000000004
S11328D000000000000000000000000000000000F4
S11328E000000000000000000000000000000000E4
S11328F000000000000000000000000000000000D4
S113290000000000000000000000000000000000C3
S1132910F8B5C046F8BC08BC9E467047CD00000020
S1132920F8B5C046F8BC08BC9E467047A500000038
S113293008000000401F000001000000000000002B
S1132940B0280000D0280000F0280000000000009B
S113295000000000000000000000000078270000D4
S11329600000000000000000000000000000000063
S11329700000000000000000000000000000000053
S11329800000000000000000000000000000000043
S11329900000000000000000000000000C00002007
S10729A0AD2700005B
S903152DBA
