S018000047696D62616C436F6E74726F6C6C65722E737265639C
S1130000D85E00207D070000790700007907000012
S113001000000000000000000000000000000000DC
S1130020000000000000000000000000790700004C
S113003000000000000000007907000079070000BC
S113004079070000790700007907000079070000AC
S1130050790700007907000079070000790700009C
S1130060790700007907000079070000790700008C
S1130070790700007907000079070000790700007C
S1130080790700007907000079070000790700006C
S1130090790700007907000079070000790700005C
S11300A07907000010B5064C2378002B07D1054BC7
S11300B0002B02D0044800E000BF0123237010BDD0
S11300C00C00002000000000F009000008B5084BF7
S11300D0002B03D00748084900E000BF0748036825
S11300E0002B03D0064B002B00D0984708BDC04618
S11300F000000000F009000010000020F0090000DA
S11301000000000010B50020084B9847084CFA2165
S11301108900A047074B1860FA218900A047064BC5
S113012018600522054B1A6010BDC0466105000029
S1130130A5080000040000200000002010E000E0FA
S113014030B5084B1C68084A00258021490206E0A6
S1130150002C04D05460956013680B42FCD0013825
S1130160F6D230BD0000002010E000E030B5084BAE
S11301701C68084A00258021490206E0002C04D0AE
S11301805460956013680B42FCD00138F6D230BD40
S11301900400002010E000E00C4B1B68002B10D181
S11301A0EFF31083002B09D172B6BFF35F8F0022E7
S11301B0074B1A700122074B1A7002E00022054B0C
S11301C01A70024B1A6801321A6070472800002026
S11301D0080000202C000020084B1A68013A1A601D
S11301E01B68002B09D1064B1B78002B05D001227C
S11301F0044B1A70BFF35F8F62B67047280000206B
S11302002C00002008000020F0B583B001AC0125CB
S113021065700027A77025700E20211C064EB0477C
S11302208022D201054B9A61277065700F20211C32
S1130230B04703B0F0BDC046410200000044004195
S113024000B583B001AB80221A700A785A704A78DC
S11302509A708A78DA70191C014B984703B000BD74
S11302602507000008B507282BD88000174B1B581A
S11302709F468020000227E0154BD86824E0154BE8
S1130280186A8005800F144BC340181C1CE0104BE7
S1130290186919E00E4B1B680220184014D00D4950
S11302A01022CB681A42FCD0094B1B685A070AD5A6
S11302B000200A4B9847064B9B681B041B0C5843B1
S11302C002E0002000E0064808BDC0469009000096
S11302D0300000200008004000127A00650600008B
S11302E0006CDC0270B50C4B1C6A01788578407890
S11302F00122104080014026B44304432A40D00127
S113030080229443221C0243032001400902034833
S113031002400A431A6270BD00080040FFFCFFFF60
S113032007283BD880001E4B1B589F46002036E010
S11303301C4B196A02220A431A6200202FE0194B4F
S1130340996902220A439A61002028E0154B198A10
S113035002220A431A82002021E0124B998A0222C7
S11303600A439A8200201AE00F4B196802220A43BA
S11303701A601A680D4B1A400A4B9A84191C1022F1
S1130380CB681A42FCD0084A9168064BD96251687E
S11303909962126892B29A84002000E01720704794
S11303A0B009000000080040300000207FFF00007A
S11303B030B585B0C222D200194B9A60194B5A68E5
S11303C01E218A435A6001236A4613700024164D85
S11303D0E0B26946A84701341C2CF9D103A80024D3
S11303E04470012585700470104B98470620104B0B
S11303F09847104B9847104B1C725C729C72019585
S11304006B465C7006236A461370147254720020A3
S113041069460A4B98470020094B984705B030BD00
S1130420000800400040004149060000E5020000C9
S1130430210300004504000000040040690400009A
S11304401D050000064B996908220A439A6101229E
S1130450044B1A70191C0B781342FCD17047C04628
S113046000040040000C0040F8B5061C071C0D7881
S11304702D0205434B78002B02D08023DB021D4361
S11304804B7A002B02D080231B031D434C68012CA4
S113049017D9631E1C420FD1022C06D90223002255
S11304A001325B009C42FBD800E000221702374374
S11304B080235B031D4304E02702374380239B0210
S11304C01D430B7A002B02D080239B031D430F4A4C
S11304D053785BB2002BFBDB0D4B98470D4B1E7022
S11304E00A4A53785BB2002BFBDB084B9F601A1C53
S11304F053785BB2002BFBDB044B59688022520219
S11305000A4015435D60044B9847F8BD000C004059
S113051099010000080C0040D901000010B5041C2A
S11305200B4A53785BB2002BFBDB0A4B98470A4B10
S11305301C70074A53785BB2002BFBDB044B5968F1
S1130540802252020A435A60044B984710BDC046A9
S1130550000C004099010000040C0040D901000087
S113056070B5041C1A4A53785BB2002BFBDB194BA1
S11305709847194B1C70164A53785BB2002BFBDB6F
S1130580134E7068C004C00E144B9847051C124BE0
S11305901C707668F602F60F114B1C700C4A5378E7
S11305A05BB2002BFBDB0A4B9C68240AA4B20D4B04
S11305B09847002E07D1012C07D9281C211C0A4B6F
S11305C09847051C01E00134E540281C70BDC04675
S11305D0000C004099010000040C0040650200007A
S11305E0080C0040D9010000A508000010B5041C47
S11305F00F4B98470F4B1C700F4B58880005000F8A
S113060059880E4A0A405A8059880D4A0A405A802D
S1130610191C8022D2014B881342FCD1064B0102E3
S11306205888064A02400A435A80064B984710BD30
S113063099010000020C0040000C0040FFF0FFFF95
S1130640FFBFFFFFD901000010B50C78240204435A
S1130650024B9847A4B2024B5C8010BDED0500002C
S1130660000C004010B5041C064B9847064B1C7048
S1130670064B5C882405240F054B9847201C054B2A
S1130680984710BD99010000020C0040000C004086
S1130690D90100006105000030B5D378002B1ED1CC
S11306A01378802B04D01B0680246402234300E0CB
S11306B0002354780225AC430AD19478002C03D14A
S11306C08024A402234302E0C024E40223434160C3
S11306D05478013C012C04D8114C234001E04160C2
S11306E000230D042D0CA024E4052C431C43846238
S11306F00D0CD02424062C431C438462D478002C93
S11307000CD15C0305D59378012B01D1816100E004
S113071041615378013B012B00D8816030BDC04654
S1130720FFFFFBFF08B5031C0A1CC10900200029B8
S113073003D15809C001044940181F210B4001216D
S11307409940024B984708BD0044004199060000B7
S11307507047C04608B5044B9847044B9847044B70
S11307609847044B984708BDB103000009020000F4
S11307705107000051070000FEE7C04610B5194BB1
S1130780194A9A4203D0194B164A9A4204D3184B79
S1130790184A9A4210D31BE0174B14480330C01A6E
S11307A080080130800000230E490F4AD458CC50F1
S11307B004338342FAD1EAE70E4B1A1D0C49033184
S11307C0891A890889005218002102C39342FCD176
S11307D00A4B7F210A4A8A439A600A4B98470A4B7C
S11307E09847FEE700000020F00900000C000020FC
S11307F0D43E00200C0000200400002000ED00E0A6
S11308000000000045090000650800000023024ABA
S11308101360024A13607047C83E0020D03E002097
S113082030B583B001AC0023A370022363700123AD
S113083023702620211C034DA8472720211CA847EC
S113084003B030BD4102000038B5044C4025A56119
S11308503220034B9847656138BDC046804400414F
S11308604101000038B5094B9847094B9847094B9B
S11308709847094B98473223013B002BFCD1074D85
S1130880074CA8473220A047FBE7C04655070000A5
S113089005010000210800000D08000049080000BF
S11308A06D010000002934D00123002210B48842D5
S11308B02CD301242407A14204D2814202D209018B
S11308C01B01F8E7E400A14204D2814202D24900AC
S11308D05B00F8E7884201D3401A1A434C08A0424F
S11308E002D3001B5C0822438C08A04202D3001BE5
S11308F09C082243CC08A04202D3001BDC082243FC
S1130900002803D01B0901D00909E3E7101C10BC1F
S11309107047002801D00020C04307B4024802A158
S11309204018029003BDC046190000000029F0D011
S113093003B5FFF7B9FF0EBC4243891A1847C046F6
S11309407047C04670B50E4B0E4D0024ED1AAD1025
S11309501E1CAC4204D0A300F35898470134F8E7B6
S113096000F036F8084B094D0024ED1AAD101E1C9A
S1130970AC4204D0A300F35898470134F8E770BDA3
S1130980DC090000DC090000DC090000E0090000CB
S113099078020000C2020000C202000072020000DD
S11309A0720200008E0200007E0200009402000029
S11309B04C0300009C0300009C0300002C03000077
S11309C03E0300005A0300003003000068030000E7
S11309D0F8B5C046F8BC08BC9E467047CD00000080
S11309E0F8B5C046F8BC08BC9E467047A500000098
S10F09F008000000401F0000010000008F
S903077D78
