:1000000050210020C10F0000BD0F0000BD0F0000F7
:1000100000000000000000000000000000000000E0
:10002000000000000000000000000000BD0F000004
:100030000000000000000000BD0F0000BD0F000028
:10004000BD0F0000BD0F0000BD0F0000BD0F000080
:10005000BD0F0000BD0F0000BD0F0000290600000D
:100060003906000049060000590600006906000034
:1000700079060000BD0F0000BD0F0000BD0F00009D
:10008000BD0F0000BD0F0000BD0F0000BD0F000040
:10009000BD0F0000BD0F0000BD0F0000BD0F000030
:1000A000BD0F000010B5064C2378002B07D1054B7F
:1000B000002B02D0044800E000BF0123237010BDD4
:1000C0006C000020000000006C18000008B5084B10
:1000D000002B03D00748084900E000BF0748036829
:1000E000002B03D0064B002B00D0984708BDC0461C
:1000F000000000006C180000700000206C18000068
:10010000000000000C4B1B68002B10D1EFF3108394
:10011000002B09D172B6BFF35F8F0022074B1A7014
:100120000122074B1A7002E00022054B1A70024BA5
:100130001A6801321A607047880000200000002011
:100140008C000020084B1A68013A1A601B68002BCB
:1001500009D1064B1B78002B05D00122044B1A70E5
:10016000BFF35F8F62B67047880000208C000020CC
:1001700000000020F0B583B001AC012565700027B8
:10018000A77025700E20211C064EB0478022D20198
:10019000054B9A61277065700F20211CB04703B092
:1001A000F0BDC046AD0100000044004100B583B081
:1001B00001AB80221A700A785A704A789A708A784D
:1001C000DA70191C014B984703B000BD690F00009D
:1001D00010B5031C4908402099420CD30024C91AC9
:1001E000601C80B28B4201D8041CF8E74020FF2C31
:1001F00001D81480002010BDF0B55F4656464D462C
:100200004446F0B487B0061C0D1C049210AA107866
:10021000321C424340248A4200D9B3E0002B4BD128
:100220000021321C5E4CA04783462E1C0027002074
:100230000021002200233F24A4460125A846029065
:1002400003916146203903D440468840814605E049
:10025000202165464C1B4046E040814641466446AD
:10026000A1408A46101C191C80185941021C0B1C05
:100270005D464C46254202D0424602430B1C9F423B
:100280000CD801D1964209D8921BBB415046029D21
:1002900028434946039C2143029003916546013D52
:1002A000AC46CED2029803993C4B3B4A121A8B4182
:1002B000120C1B041A4362E00022012B5FD14F0F86
:1002C000B946CD00AB460021321C0023344CA04778
:1002D000061C0F1C00230125029603979A465046E0
:1002E000C0B2059000218846002200233F24271C2D
:1002F000203F03D42E1CBE40019604E02020071BA3
:10030000291CF94001912E1CA6400096101C191CB6
:1003100080185941021C0B1C5F463740BC46019EA9
:100320004F463E4067463E4302D02A1C02430B1C08
:10033000039898420BD802D10299914207D8029EA5
:10034000039F921BBB41474600980743B846013CB8
:10035000CDD2414652468B1ADB08124CA34208D933
:10036000059A0132D2B205920126B2445746082FAF
:10037000B5D140240598082804D042031A43049CB0
:1003800022800024201C07B03CBC90469946A2461F
:10039000AB46F0BDC046C0460000000001000000B2
:1003A00005130000FF1F000010B582B0041C0F4BA6
:1003B0001B78002B01D000290DD001A90C700C2056
:1003C0000B4B98470C200B4B9847084B5C70012255
:1003D0001A70002007E0054B5A781D20141B621E7E
:1003E00094416442204002B010BDC04690000020FD
:1003F0008D0E0000010E0000444B984233D006D809
:10040000434B98420DD0434B98421BD06FE0424B78
:1004100098424AD0414B984258D0414B984266D1BD
:1004200032E0012965D0002904D0022906D0032931
:1004300006D001E03B4867E0002065E03A4863E011
:100440003A4861E0012956D0002904D0022906D09B
:10045000032906D001E0032056E0002054E0344890
:1004600052E0344850E0012947D0002904D0022945
:1004700006D0032906D001E02F4845E0002043E0E4
:100480002E4841E02E483FE0012938D0002904D011
:10049000022906D0032906D001E02A4834E00020D2
:1004A00032E0294830E029482EE0012929D00029EE
:1004B00004D0022906D0032906D001E0244823E015
:1004C000002021E023481FE023481DE001291AD025
:1004D000002904D0022906D0032906D001E01F48D4
:1004E00012E0002010E01E480EE01E480CE0002044
:1004F0000AE01D4808E01D4806E01D4804E01D48CC
:1005000002E01D4800E01D487047C0460010004250
:1005100000080042000C004200180042001C00428B
:10052000001400420300040003000600030007005B
:1005300003001E0003001F000300080003000A0060
:1005400003000B000300100003001200030013005F
:1005500003000C0003000E0003000F000300160050
:100560000300180003001900030005000300010048
:10057000030009000300110003000D000300170031
:1005800070B586B00C4A6B4670CA70C332CA32C3AB
:10059000009E864206D001239A0069465258824244
:1005A00003D100E00023D8B203E00133062BF3D1DE
:1005B000002006B070BDC046841600007047C046DB
:1005C000F0B50A4B1B78002B0CD1094F094E0A4D90
:1005D0000024DE515A1914600433182BF9D101227A
:1005E000024B1A708000024BC150F0BD94000020F5
:1005F00098000020BD050000D400002010B582B096
:10060000041C684605490622054B9847201C054BEB
:1006100098476B46185602B010BDC0469C160000A5
:10062000A11300008105000008B5024B1B680020E3
:10063000984708BD9800002008B5024B5B68012070
:10064000984708BD9800002008B5024B9B6802201F
:10065000984708BD9800002008B5024BDB680320CE
:10066000984708BD9800002008B5024B1B6904207C
:10067000984708BD9800002008B5024B5B6905202B
:10068000984708BD98000020F0B55F4656464D4695
:100690004446F0B48DB0051C0C1C161C2960081CC7
:1006A0007D4B984721680523CA0700D5ECE02268F6
:1006B0001C23970700D5E7E0784B196A821C0127B5
:1006C00097403A1C0A431A620BA9737F0B700D30D6
:1006D000C7B2381C724B9847381C724B9847707FD2
:1006E0000021714B9847F37A6B71337DAB71737D49
:1006F000EB712F680397381C674B98470D30002229
:100700006B46DA8231688946F2689246B37D984634
:100710007368002B13D08022520593422BD1F37DB6
:10072000002B01D02A682BE03769C0B25F4B984795
:10073000011C381C6A4616325D4B98471CE0F37D5D
:10074000002B09D0102300933069B1696A46163234
:100750000023584FB8470FE031698B46C0B2534B66
:100760009847011C1023009358466A46163200230E
:10077000504FB84700E00020031E00D084E0D1E7CE
:10078000138ADB0BDB039BB2002BF9D16B461633CC
:100790001B88039F7B81524649460A4373681A436C
:1007A00047467B071A43F37D002B01D104231A43EC
:1007B000307D4004737D1B041843F17AB37A0B43F8
:1007C00018433389FF2B03D0802149040A4318437F
:1007D000337F002B03D1384B9B78990701D58023B9
:1007E0001A4329680B8ADB0BDB039BB2002BF9D180
:1007F000039F786029680B8ADB0BDB039BB2002B1D
:10080000F9D1039F3A600AAB80221A7000225A7015
:10081000DA709A70316A0691726A0792B36A089325
:10082000F66A099600270AAEF9B2BB0006AA9858E4
:10083000002802D1201C214A9047431C05D030706B
:10084000000CC0B2311C1E4A90470137042FEBD177
:100850000023AB60EB602B61AB616B610022EB832B
:10086000AB832023EA542123EA542223EA5423238E
:10087000EA542868084B9847041C1249124B9847C1
:10088000A400124BE5500023181C0DB03CBC904650
:100890009946A246AB46F0BD810500000004004029
:1008A0008D0E0000010E0000A9030000A90E00003B
:1008B000D1010000F901000000200041F90300000F
:1008C000690F000049090000C1050000D4000020A4
:1008D000931C9B001950012393401A1C2023C15CD8
:1008E0000A43C2547047C04610B51723002A11D0DE
:1008F000C48BA4B20523002C0CD1C4791C23002C7A
:1009000008D00368C283816105212322815401221A
:100910005A730023181C10BD10B51723002A11D0DC
:1009200084791C23002C0DD0848BA4B20523002CC9
:1009300008D1036882834161052122228154042267
:100940005A730023181C10BDF8B58000494BC558D8
:100950002C68238ADB0BDB039BB2002BF9D1A37B32
:10096000667B1E402123EB5C2022AA5C171C1F40E3
:10097000F10720D5EB8B9BB2002B1AD0AB691A780C
:10098000D2B2591CA9616979012904D159780902A7
:100990000A430233AB61D305DB0D2383EB8B013BB1
:1009A0009BB2EB83002B06D10123237302236373D5
:1009B00001E001232373B20709D502232373002228
:1009C0002323EA54FB0702D5281CA968884772072D
:1009D0004ED5AB8B9BB2002B48D0238ADBB2590794
:1009E00022D09A0707D51A222223EA54228A022308
:1009F0001343238212E0590707D51E222223EA540B
:100A0000228A04231343238208E0DA0706D513223F
:100A10002223EA54228A0123134323827B0727D50A
:100A20002B69281C984723E0228BD205D20DD3B224
:100A300069690B706B69591C69616979012904D175
:100A4000120A5A706B6901336B61AB8B013B9BB22D
:100A5000AB83002B0CD10423237300222223EA54FE
:100A6000BA0705D5EB68281C984701E004232373D7
:100A7000F8BDC046D400002008B507282BD8800058
:100A8000174B1B589F468020000227E0154BD86863
:100A900024E0154B186A8005800F144BC340181CC6
:100AA0001CE0104B186919E00E4B1B68022018401F
:100AB00014D00D491022CB681A42FCD0094B1B6898
:100AC0005A070AD500200A4B9847064B9B681B041F
:100AD0001B0C584302E0002000E0064808BDC04659
:100AE000A4160000B00000200008004000127A00A8
:100AF000A90E0000006CDC0270B50C4B1C6A01787A
:100B0000857840780122104080014026B443044398
:100B10002A40D00180229443221C0243032001403A
:100B20000902034802400A431A6270BD00080040EF
:100B3000FFFCFFFF07283BD880001E4B1B589F4639
:100B4000002036E01C4B196A02220A431A62002078
:100B50002FE0194B996902220A439A61002028E08C
:100B6000154B198A02220A431A82002021E0124BF7
:100B7000998A02220A439A8200201AE00F4B1968D0
:100B800002220A431A601A680D4B1A400A4B9A84D3
:100B9000191C1022CB681A42FCD0084A9168064BF7
:100BA000D96251689962126892B29A84002000E07A
:100BB00017207047C416000000080040B000002055
:100BC0007FFF000030B585B0C222D200194B9A6079
:100BD000194B5A681E218A435A6001236A461370D2
:100BE0000024164DE0B26946A84701341C2CF9D107
:100BF00003A800244470012585700470104B9847A9
:100C00000620104B9847104B9847104B1C725C7293
:100C10009C7201956B465C7006236A4613701472D1
:100C20005472002069460A4B98470020094B9847A8
:100C300005B030BD00080040004000418D0E0000AE
:100C4000F90A0000350B0000590C000000040040B8
:100C50007D0C0000310D0000064B996908220A4303
:100C60009A610122044B1A70191C0B781342FCD1B3
:100C70007047C04600040040000C0040F8B5061C58
:100C8000071C0D782D0205434B78002B02D08023E2
:100C9000DB021D434B7A002B02D080231B031D4334
:100CA0004C68012C17D9631E1C420FD1022C06D9A7
:100CB0000223002201325B009C42FBD800E00022AC
:100CC0001702374380235B031D4304E027023743A9
:100CD00080239B021D430B7A002B02D080239B03B1
:100CE0001D430F4A53785BB2002BFBDB0D4B98473B
:100CF0000D4B1E700A4A53785BB2002BFBDB084B8E
:100D00009F601A1C53785BB2002BFBDB044B5968C5
:100D1000802252020A4015435D60044B9847F8BD9B
:100D2000000C004005010000080C004045010000D7
:100D300010B5041C0B4A53785BB2002BFBDB0A4B4B
:100D400098470A4B1C70074A53785BB2002BFBDBB9
:100D5000044B5968802252020A435A60044B984758
:100D600010BDC046000C004005010000040C00400E
:100D70004501000070B5041C1A4A53785BB2002B81
:100D8000FBDB194B9847194B1C70164A53785BB222
:100D9000002BFBDB134E7068C004C00E144B984749
:100DA000051C124B1C707668F602F60F114B1C7076
:100DB0000C4A53785BB2002BFBDB0A4B9C68240A7D
:100DC000A4B20D4B9847002E07D1012C07D9281C3F
:100DD000211C0A4B9847051C01E00134E540281C02
:100DE00070BDC046000C004005010000040C00402E
:100DF000790A0000080C004045010000651200005F
:100E000010B5041C064B9847064B1C70064B5988BE
:100E10008022D2010A435A80044B984710BDC04635
:100E200005010000020C0040000C004045010000DC
:100E300010B5041C0F4B98470F4B1C700F4B588874
:100E40000005000F59880E4A0A405A8059880D4AF9
:100E50000A405A80191C8022D2014B881342FCD1CF
:100E6000064B01025888064A02400A435A80064B44
:100E7000984710BD05010000020C0040000C004026
:100E8000FFF0FFFFFFBFFFFF4501000010B50C782A
:100E900024020443024B9847A4B2024B5C8010BD6D
:100EA000310E0000000C004010B5041C064B9847A2
:100EB000064B1C70064B5C882405240F054B984795
:100EC000201C054B984710BD05010000020C004096
:100ED000000C004045010000750D000030B5D378CE
:100EE000002B1ED11378802B04D01B0680246402B3
:100EF000234300E0002354780225AC430AD19478C0
:100F0000002C03D18024A402234302E0C024E40285
:100F1000234341605478013C012C04D8114C2340F8
:100F200001E0416000230D042D0CA024E4052C43B6
:100F30001C4384620D0CD02424062C431C43846281
:100F4000D478002C0CD15C0305D59378012B01D10A
:100F5000816100E041615378013B012B00D8816041
:100F600030BDC046FFFFFBFF08B5031C0A1CC109CA
:100F70000020002903D15809C001044940181F214D
:100F80000B4001219940024B984708BD00440041A5
:100F9000DD0E00007047C04608B5044B9847044B6F
:100FA0009847044B9847044B984708BDC50B000071
:100FB00075010000950F0000950F0000FEE7C04688
:100FC00010B5194B194A9A4203D0194B164A9A4246
:100FD00004D3184B184A9A4210D31BE0174B1448FD
:100FE0000330C01A80080130800000230E490F4AE8
:100FF000D458CC5004338342FAD1EAE70E4B1A1D81
:101000000C490331891A890889005218002102C34A
:101010009342FCD10A4B7F210A4A8A439A600A4BC9
:1010200098470A4B9847FEE7000000206C18000024
:101030006C000020500100206C0000200400002003
:1010400000ED00E0000000005513000095110000C5
:10105000064B1B68002B02D1054A044B1A60034A59
:10106000136818181060181C7047C046C400002090
:10107000502100208022D201014BDA617047C04626
:101080000044004108B5002307480849C25CCA541F
:101090000133102BFAD10122054B1A700548024981
:1010A0001022054B984708BD300100201401002094
:1010B000C8000020F0000020E908000070B58CB0E6
:1010C0008023DB05009300230193FF2269460A81F8
:1010D0008B72CB7201220A754A758B75CB7506939C
:1010E0000B774B77E1231B020493C4239B030393E9
:1010F00001235B4208930993124B0A93124B0B9303
:10110000124E134D134C301C291C6A46A047002870
:10111000F9D10E4D2C68201C0F4B98471F23184007
:1011200001238340181C0D4B18602A68138ADB0BBF
:10113000DB039BB2002BF9D1226802231343236007
:101140000CB070BD0200180002001900F000002071
:101150000014004289060000FD05000000E100E0E7
:1011600038B5084C201C08490022084DA847201C0F
:1011700007490122A8472123E15C03220A43E254E4
:1011800038BDC046F000002075100000D1080000F6
:1011900085100000F8B55F4656464D464446F0B40B
:1011A000204B9847204B9847204B98470122204BD3
:1011B0001A70BFF35F8F62B61E4E1F4B9B46012312
:1011C0009846D8441D4D1E4C301C291C1022A047A7
:1011D0001C4B1B78012BF7D100221A4B1A701548B3
:1011E00059461022184B9847184B9A464046191CEE
:1011F000174B99469847174D2860174CA047431E38
:101200009841164B187000205146C8472860A047E7
:10121000134F386000205146C8472860A0477860C7
:10122000D0E7C046990F0000BD100000611100001A
:1012300000000020F00000201401002030010020F8
:1012400019090000C8000020E9080000E4160000A9
:10125000B5130000440100204913000040010020A4
:1012600024010020002934D00123002210B4884238
:101270002CD301242407A14204D2814202D20901C5
:101280001B01F8E7E400A14204D2814202D24900E6
:101290005B00F8E7884201D3401A1A434C08A04289
:1012A00002D3001B5C0822438C08A04202D3001B1F
:1012B0009C082243CC08A04202D3001BDC08224336
:1012C000002803D01B0901D00909E3E7101C10BC5A
:1012D0007047002801D00020C04307B4024802A193
:1012E0004018029003BDC046190000000029F0D04C
:1012F00003B5FFF7B9FF0EBC4243891A1847C04631
:101300007047C0469C460304F0B51B0C17043F0C05
:10131000150C1E1C041C000C7E436B4347434543C5
:10132000FB18300C1818874202D980235B02ED1895
:10133000030CED1863465C434A433604360CA1188F
:10134000000480194919F0BD08B500210A2200F0F7
:101350001BF908BD70B50E4B0E4D0024ED1AAD10F3
:101360001E1CAC4204D0A300F35898470134F8E7A0
:1013700000F06CFA084B094D0024ED1AAD101E1C4C
:10138000AC4204D0A300F35898470134F8E770BD8D
:101390005818000058180000581800005C18000089
:1013A00010B50023934203D0CC5CC4540133F9E759
:1013B00010BD0000F8B5174B071C1D680E1CAC6D66
:1013C000002C1FD1502000F0EDF8A8658460AB6DB3
:1013D000046044601C61DC60AB6D9C615C61AB6D62
:1013E000DC629C62AB6D5C631C63AB6DDC639C6315
:1013F000AB6D5C641C64AB6DDC649C64AB6D1C7792
:10140000AB6D5C62AA6D381C311C012300F004F83E
:10141000F8BDC04664000020F0B5002802D1106875
:10142000002826D00578441C0E1C3778002F09D0E0
:101430000136BD42F9D1002B01D0201CF2E7146027
:10144000037016E0002D09D11560281C11E02F78DB
:10145000B74207D00135002FF9D11C1C631C267838
:101460000D1CF4E7002E02D00021217000E0331C97
:101470001360F0BDF0B51D1C424B87B01B68059092
:101480000293039101920B1C1C78029F5E1C3A1977
:10149000517808220A4001D0331CF5E72D2C04D1E5
:1014A00001279E1C5C78009704E000922B2C01D150
:1014B0005C789E1C10232A1C9A4311D1302C08D131
:1014C000327820218A43582A07D174781D1C0236AD
:1014D00006E0002D04D10A2502E0002D00D10825E8
:1014E000009F291C7B427B4180273F06FF1A381C46
:1014F000FFF7FCFE381C0491291CFFF7B3FE002304
:10150000021C181C029F391949784F0701D5303C3D
:1015100007E003270F4017D05721012F00D13721B3
:10152000641AAC4210DA591C0BD0904207D802D191
:10153000049FBC4203DC68430123201801E001231F
:101540005B4234780136DDE7009F591C0BD18020C7
:101550007B427B410006059FC01A22233B60019F0E
:10156000002F09D10BE0002F00D04042019F002F37
:1015700005D0039A002B00D0721E019F3A6007B07D
:10158000F0BDC0466800002038B5131C044A051C95
:101590000C1C1068291C221CFFF76CFF38BDC046CC
:1015A0006400002008B5034B011C186800F004F823
:1015B00008BDC0466400002070B50323CD1C9D43C8
:1015C0000835061C0C2D01D20C2501E0002D3FDB57
:1015D0008D423DD3204B1C681A1C211C002913D0BE
:1015E0000868431B0DD40B2B02D90B60CC181EE0EE
:1015F0008C4202D1636813601AE0486860600C1C7A
:1016000016E00C1C4968E9E7144C2068002803D157
:10161000301C00F025F82060301C291C00F020F858
:10162000431C15D0C41C03239C4384420AD125606B
:10163000201C0B300722231D9043C31A0BD05A42A3
:10164000E25008E0211A301C00F00AF80130EED117
:101650000C233360002070BDD0000020CC0000209F
:1016600038B5074C0023051C081C2360FFF7F0FC6D
:10167000431C03D12368002B00D02B6038BDC0462B
:101680004C01002000080042000C00420010004203
:101690000014004200180042001C00420708090A1A
:1016A0000B0C00008C0A0000D60A0000D60A0000CD
:1016B000860A0000860A0000A20A0000920A0000C2
:1016C000A80A0000600B0000B00B0000B00B000087
:1016D000400B0000520B00006E0B0000440B00009A
:1016E0007C0B00002C000000430000202020202064
:1016F00020202020282828282820202020202020C2
:1017000020202020202020202020208810101010B1
:101710001010101010101010101010040404040405
:101720000404040404101010101010104141414131
:101730004141010101010101010101010101010119
:10174000010101010101101010101010424242422B
:1017500042420202020202020202020202020202E9
:10176000020202020202101010102000000000000D
:101770000000000000000000000000000000000069
:101780000000000000000000000000000000000059
:101790000000000000000000000000000000000049
:1017A0000000000000000000000000000000000039
:1017B0000000000000000000000000000000000029
:1017C0000000000000000000000000000000000019
:1017D0000000000000000000000000000000000009
:1017E00000000000000000000000000000000000F9
:1017F00000000000000000000000000000000000E9
:1018000000000000000000000000000000000000D8
:1018100000000000000000000000000000000000C8
:1018200000000000000000000000000000000000B8
:1018300000000000000000000000000000000000A8
:10184000000000000000000000000000F8B5C046E5
:10185000F8BC08BC9E467047CD000000F8B5C046F5
:0C186000F8BC08BC9E467047A5000000C4
:10186C000100000000000000EC1700000C18000044
:10187C002C18000000000000000000000000000018
:10188C0000000000E816000000000000000000004E
:10189C00000000000000000000000000000000003C
:1018AC00000000000000000000000000000000002C
:1018BC00000000000000000000000000000000001C
:0C18CC000000000004000020EA160000EC
:0400000300000FC129
:00000001FF
